:100000000C942A000C943C000C943C000C943C0092
:100010000C94DC020C943C000C943C000C946A029E
:100020000C943C000C943C000C941B020C943C007F
:100030000C943C000C9446030C943C000C943C0043
:100040000C943C000C943C000C943C000C943C0040
:100050000C943C0011241FBECFE5D8E0DEBFCDBF1D
:1000600020E0A0E6B0E001C01D92A038B207E1F7A1
:100070000E943E000C9495030C9400000E947400B2
:100080000E94D400D0E0C0E00E94D700883708F07A
:10009000C82F883708F4D82FCC3828F0DC3818F06F
:1000A0000E948D00F1CFCC3848F0DD3838F4DC33D5
:1000B00028F066E488E20E94A400E6CFDC3848F02D
:1000C000CD3838F4CC3328F068E286E40E94A400EE
:1000D000DBCF84EC8C0F8135B8F6DD38A8F6DC3345
:1000E00098F20E94BD00D0CF61E08AE20E94DA005F
:1000F00061E08BE20E94DA0061E08CE20E94DA00AB
:1001000061E08DE20E94DA000E9402020E94C302B6
:100110000E94F8010E94B90208958BE40E94120225
:100120008BE40E94D30261E08AE20E94690160E0F0
:100130008BE20E94690161E08CE20E94690160E04B
:100140008DE20E9469010895CF93C62F0E9412028A
:100150008C2F0E94D30261E08AE20E94690160E074
:100160008BE20E94690161E08CE20E94690160E01B
:100170008DE20E946901CF9108958BE40E941202E2
:100180008BE40E94D30260E08AE20E94690161E090
:100190008BE20E94690160E08CE20E94690161E0EB
:1001A0008DE20E94690108950E942B0308950E9428
:1001B000420308959DEC899F912D1124292F2695A6
:1001C00026952695220F322F330F330F230F821BD4
:1001D000282F892F8695869586956623D9F18230BA
:1001E000A9F018F4813031F008958330D9F08430CB
:1001F00029F108953AB381E090E002C0880F991F79
:100200002A95E2F7832B8ABB8ABB089537B381E036
:1002100090E002C0880F991F2A95E2F7832B87BBD5
:1002200087BB089534B381E090E002C0880F991F26
:100230002A95E2F7832B84BB84BB089531B381E018
:1002400090E002C0880F991F2A95E2F7832B81BBAB
:1002500081BB08958230B1F018F4813031F00895F7
:100260008330E9F0843041F108953AB381E090E0C1
:1002700002C0880F991F2A95E2F7809583238ABBD5
:100280008ABB089537B381E090E002C0880F991FC0
:100290002A95E2F78095832387BB87BB089534B303
:1002A00081E090E002C0880F991F2A95E2F78095BF
:1002B000832384BB84BB089531B381E090E002C006
:1002C000880F991F2A95E2F78095832381BB81BB14
:1002D00008959DEC899F912D1124292F269526950F
:1002E0002695220F322F330F330F230F821B282F17
:1002F000892F8695869586956623D9F18230A9F057
:1003000018F4813031F008958330D9F0843029F128
:1003100008953BB381E090E002C0880F991F2A95B1
:10032000E2F7832B8BBB8BBB089538B381E090E061
:1003300002C0880F991F2A95E2F7832B88BB88BBE0
:10034000089535B381E090E002C0880F991F2A9587
:10035000E2F7832B85BB85BB089532B381E090E043
:1003600002C0880F991F2A95E2F7832B82BB82BBBC
:1003700008958230B1F018F4813031F0089583305F
:10038000E9F0843041F108953BB381E090E002C090
:10039000880F991F2A95E2F7809583238BBB8BBB2F
:1003A000089538B381E090E002C0880F991F2A9524
:1003B000E2F78095832388BB88BB089535B381E03D
:1003C00090E002C0880F991F2A95E2F78095832359
:1003D00085BB85BB089532B381E090E002C0880FF1
:1003E000991F2A95E2F78095832382BB82BB0895EB
:1003F00083B7816083BF83B78D7F83BF83B78B7FD4
:1004000083BF089587B3886087BB83B7806483BF49
:1004100083B7886083BF83B7806283BF83B78F7ED3
:1004200083BF0895982F80E064E670E00E946D031A
:1004300061506CBF08951F920F920FB60F92112456
:100440002F933F934F935F936F937F938F939F93DC
:10045000AF93BF93EF93FF93809160009091610001
:10046000A0916200B09163000196A11DB11D80931F
:10047000600090936100A0936200B093630040918C
:100480006400509165006091660070916700841768
:100490009507A607B70769F4E0916800F091690035
:1004A0000995109260001092610010926200109203
:1004B0006300FF91EF91BF91AF919F918F917F91D9
:1004C0006F915F914F913F912F910F900FBE0F90C1
:1004D0001F9018951F920F920FB60F9211242F9311
:1004E0003F934F935F936F937F938F939F93AF93BC
:1004F000BF93EF93FF9380916A0090916B00A0915E
:100500006C00B0916D000196A11DB11D80936A0031
:1005100090936B00A0936C00B0936D0040916E00BF
:1005200050916F0060917000709171008417950771
:10053000A607B70769F4E0917200F091730009957E
:1005400010926A0010926B0010926C0010926D0075
:10055000FF91EF91BF91AF919F918F917F916F919B
:100560005F914F913F912F910F900FBE0F901F9071
:10057000189585B5816085BD85B58D7F85BD85B5AF
:100580008B7F85BD089581B3806881BB85B580640C
:1005900085BD85B5886085BD85B5806285BD85B51D
:1005A0008F7E85BD0895982F80E064E670E00E94FC
:1005B0006D03615063BD08951F920F920FB60F92A5
:1005C00011242F933F934F935F936F937F938F9358
:1005D0009F93AF93BF93EF93FF938091740090919B
:1005E0007500A0917600B09177000196A11DB11D14
:1005F0008093740090937500A0937600B093770079
:10060000409178005091790060917A0070917B0060
:1006100084179507A607B70769F4E0917C00F0916D
:100620007D0009951092740010927500109276006A
:1006300010927700FF91EF91BF91AF919F918F91B1
:100640007F916F915F914F913F912F910F900FBECE
:100650000F901F90189581B38E7F81BB81B382600C
:1006600081BB8FB780688FBF8AB18B7F8AB983E3E4
:1006700089B986E880BD8AB180618AB98AB188600B
:100680008AB908955F9BFECF8CB108951F920F9297
:100690000FB60F9211242F933F934F935F936F9355
:1006A0007F938F939F93AF93BF93EF93FF93E091CB
:1006B0007E00F0917F000995FF91EF91BF91AF917E
:1006C0009F918F917F916F915F914F913F912F916A
:1006D0000F900FBE0F901F90189597FB072E16F4E2
:1006E000009407D077FD09D00E94810307FC05D054
:1006F0003EF4909581959F4F0895709561957F4F39
:100700000895AA1BBB1B51E107C0AA1FBB1FA61758
:10071000B70710F0A61BB70B881F991F5A95A9F7AA
:0E07200080959095BC01CD010895F894FFCF0F
:00000001FF
